{"abi":[{"type":"constructor","inputs":[{"name":"_token0","type":"address","internalType":"address"},{"name":"_token1","type":"address","internalType":"address"},{"name":"_fee","type":"uint24","internalType":"uint24"},{"name":"_tickSpacing","type":"int24","internalType":"int24"}],"stateMutability":"nonpayable"},{"type":"function","name":"fee","inputs":[],"outputs":[{"name":"","type":"uint24","internalType":"uint24"}],"stateMutability":"view"},{"type":"function","name":"initialize","inputs":[{"name":"sqrtPriceX96","type":"uint160","internalType":"uint160"}],"outputs":[],"stateMutability":"nonpayable"},{"type":"function","name":"maxLiquidityPerTick","inputs":[],"outputs":[{"name":"","type":"uint128","internalType":"uint128"}],"stateMutability":"view"},{"type":"function","name":"mint","inputs":[{"name":"recipient","type":"address","internalType":"address"},{"name":"tickLower","type":"int24","internalType":"int24"},{"name":"tickUpper","type":"int24","internalType":"int24"},{"name":"amount","type":"uint128","internalType":"uint128"}],"outputs":[{"name":"amount0","type":"uint256","internalType":"uint256"},{"name":"amount1","type":"uint256","internalType":"uint256"}],"stateMutability":"nonpayable"},{"type":"function","name":"positions","inputs":[{"name":"","type":"bytes32","internalType":"bytes32"}],"outputs":[{"name":"liquidity","type":"uint128","internalType":"uint128"},{"name":"feeGrowthInside0LastX128","type":"uint256","internalType":"uint256"},{"name":"feeGrowthInside1LastX128","type":"uint256","internalType":"uint256"},{"name":"tokensOwed0","type":"uint128","internalType":"uint128"},{"name":"tokensOwed1","type":"uint128","internalType":"uint128"}],"stateMutability":"view"},{"type":"function","name":"slot0","inputs":[],"outputs":[{"name":"sqrtPriceX96","type":"uint160","internalType":"uint160"},{"name":"tick","type":"int24","internalType":"int24"},{"name":"unlocked","type":"bool","internalType":"bool"}],"stateMutability":"view"},{"type":"function","name":"tickSpacing","inputs":[],"outputs":[{"name":"","type":"int24","internalType":"int24"}],"stateMutability":"view"},{"type":"function","name":"token0","inputs":[],"outputs":[{"name":"","type":"address","internalType":"address"}],"stateMutability":"view"},{"type":"function","name":"token1","inputs":[],"outputs":[{"name":"","type":"address","internalType":"address"}],"stateMutability":"view"}],"bytecode":{"object":"0x61012060405234801561001157600080fd5b5060405161158038038061158083398101604081905261003091610118565b6001600160a01b03808516608052831660a05262ffffff821660c052600281900b60e05261005d81610074565b6001600160801b0316610100525061029c92505050565b6000808261008681620d89e7196101ac565b61009091906101e6565b9050600083806100a3620d89e71961020d565b6100ad91906101ac565b6100b791906101e6565b90506000846100c6848461022f565b6100d091906101ac565b6100db90600161025a565b90506100f362ffffff82166001600160801b03610276565b95945050505050565b80516001600160a01b038116811461011357600080fd5b919050565b6000806000806080858703121561012e57600080fd5b610137856100fc565b9350610145602086016100fc565b9250604085015162ffffff8116811461015d57600080fd5b8092505060608501518060020b811461017557600080fd5b939692955090935050565b634e487b7160e01b600052601260045260246000fd5b634e487b7160e01b600052601160045260246000fd5b60008160020b8360020b806101c3576101c3610180565b627fffff198214600019821416156101dd576101dd610196565b90059392505050565b60008260020b8260020b028060020b915080821461020657610206610196565b5092915050565b60008160020b627fffff19810361022657610226610196565b60000392915050565b600282810b9082900b03627fffff198112627fffff8213171561025457610254610196565b92915050565b62ffffff81811683821601908082111561020657610206610196565b60006001600160801b038381168061029057610290610180565b92169190910492915050565b60805160a05160c05160e051610100516112936102ed60003960006101b901526000610220015260006102810152600061025a015260008181609d015281816103ec015261048b01526112936000f3fe608060405234801561001057600080fd5b50600436106100935760003560e01c8063b8cca34e11610066578063b8cca34e146101f3578063d0c93a7c1461021b578063d21220a714610255578063ddca3f431461027c578063f637731d146102b757600080fd5b80630dfe1681146100985780633850c7bd146100dc578063514ea4bf1461013057806370cf754a146101b4575b600080fd5b6100bf7f000000000000000000000000000000000000000000000000000000000000000081565b6040516001600160a01b0390911681526020015b60405180910390f35b600054610106906001600160a01b03811690600160a01b810460020b90600160b81b900460ff1683565b604080516001600160a01b03909416845260029290920b60208401521515908201526060016100d3565b61017e61013e366004610fb6565b600160208190526000918252604090912080549181015460028201546003909201546001600160801b039384169391929181811691600160801b90041685565b604080516001600160801b039687168152602081019590955284019290925283166060830152909116608082015260a0016100d3565b6101db7f000000000000000000000000000000000000000000000000000000000000000081565b6040516001600160801b0390911681526020016100d3565b610206610201366004610ff9565b6102cc565b604080519283526020830191909152016100d3565b6102427f000000000000000000000000000000000000000000000000000000000000000081565b60405160029190910b81526020016100d3565b6100bf7f000000000000000000000000000000000000000000000000000000000000000081565b6102a37f000000000000000000000000000000000000000000000000000000000000000081565b60405162ffffff90911681526020016100d3565b6102ca6102c536600461105d565b610522565b005b600080548190600160b81b900460ff166103165760405162461bcd60e51b81526020600482015260066024820152651b1bd8dad95960d21b60448201526064015b60405180910390fd5b6000805460ff60b81b191690556001600160801b03831661036a5760405162461bcd60e51b815260206004820152600e60248201526d616d6f756e74206973207a65726f60901b604482015260640161030d565b6000806103b860405180608001604052808a6001600160a01b031681526020018960020b81526020018860020b81526020016103ae886001600160801b03166105df565b600f0b90526105f5565b9095509350849250839150508115610463576040516323b872dd60e01b8152336004820152306024820152604481018590527f00000000000000000000000000000000000000000000000000000000000000006001600160a01b0316906323b872dd906064016020604051808303816000875af115801561043d573d6000803e3d6000fd5b505050506040513d601f19601f820116820180604052508101906104619190611081565b505b8215610502576040516323b872dd60e01b8152336004820152306024820152604481018490527f00000000000000000000000000000000000000000000000000000000000000006001600160a01b0316906323b872dd906064016020604051808303816000875af11580156104dc573d6000803e3d6000fd5b505050506040513d601f19601f820116820180604052508101906105009190611081565b505b50506000805460ff60b81b1916600160b81b179055909590945092505050565b6000546001600160a01b0316156105715760405162461bcd60e51b8152602060048201526013602482015272185b1c9958591e481a5b9a5d1a585b1a5e9959606a1b604482015260640161030d565b600061057c826106a1565b604080516060810182526001600160a01b03909416808552600283900b6020860152600194909101939093526000805460ff60b81b1962ffffff909316600160a01b026001600160b81b03199091169094179390931716600160b81b1790915550565b80600f81900b81146105f057600080fd5b919050565b600080600061060c846020015185604001516109db565b60408051606080820183526000546001600160a01b0381168352600160a01b810460020b6020808501829052600160b81b90920460ff161515848601528851918901519489015192890151939461066894929390929091610a25565b5050600080805260016020527fa6eef7e35abe7026729641147f7915573c7e97b47efa546f5f6e3230263bcb4995909450849350915050565b60006401000276a36001600160a01b038316108015906106dd575073fffd8963efd1fc6a506488495d951d5263988d266001600160a01b038316105b61070d5760405162461bcd60e51b81526020600482015260016024820152602960f91b604482015260640161030d565b640100000000600160c01b03602083901b166001600160801b03811160071b81811c67ffffffffffffffff811160061b90811c63ffffffff811160051b90811c61ffff811160041b90811c60ff8111600390811b91821c600f811160021b90811c918211600190811b92831c979088119617909417909217179091171717608081106107a85761079e607f826110b9565b83901c91506107b9565b6107b381607f6110b9565b83901b91505b600060406107c86080846110d2565b901b9050828302607f1c92508260801c80603f1b8217915083811c935050828302607f1c92508260801c80603e1b8217915083811c935050828302607f1c92508260801c80603d1b8217915083811c935050828302607f1c92508260801c80603c1b8217915083811c935050828302607f1c92508260801c80603b1b8217915083811c935050828302607f1c92508260801c80603a1b8217915083811c935050828302607f1c92508260801c8060391b8217915083811c935050828302607f1c92508260801c8060381b8217915083811c935050828302607f1c92508260801c8060371b8217915083811c935050828302607f1c92508260801c8060361b8217915083811c935050828302607f1c92508260801c8060351b8217915083811c935050828302607f1c92508260801c8060341b8217915083811c935050828302607f1c92508260801c8060331b8217915083811c935050828302607f1c92508260801c8060321b8217915050600081693627a301d71055774c8561094b91906110f9565b90506000608061096b6f028f6481ab7f045a5af012a19d003aaa846110d2565b901d90506000608061098d846fdb2df09e81959a81455e260799a0632f611129565b901d90508060020b8260020b146109cc57886001600160a01b03166109b182610a98565b6001600160a01b031611156109c657816109ce565b806109ce565b815b9998505050505050505050565b8060020b8260020b126109ed57600080fd5b620d89e719600283900b1215610a0257600080fd5b610a0f620d89e719611151565b60020b8160020b1315610a2157600080fd5b5050565b60408051606087901b6bffffffffffffffffffffffff191660208083019190915260e887811b603484015286901b60378301528251601a818403018152603a9092018352815191810191909120600090815260019091529081209080610a8d83868380610eb8565b505095945050505050565b60008060008360020b12610aaf578260020b610abc565b8260020b610abc90611173565b9050610acb620d89e719611151565b60020b811115610b015760405162461bcd60e51b81526020600482015260016024820152601560fa1b604482015260640161030d565b600081600116600003610b1857600160801b610b2a565b6ffffcb933bd6fad37aa2d162d1a5940015b70ffffffffffffffffffffffffffffffffff1690506002821615610b69576080610b64826ffff97272373d413259a46990580e213a61118f565b901c90505b6004821615610b93576080610b8e826ffff2e50f5f656932ef12357cf3c7fdcc61118f565b901c90505b6008821615610bbd576080610bb8826fffe5caca7e10e4e61c3624eaa0941cd061118f565b901c90505b6010821615610be7576080610be2826fffcb9843d60f6159c9db58835c92664461118f565b901c90505b6020821615610c11576080610c0c826fff973b41fa98c081472e6896dfb254c061118f565b901c90505b6040821615610c3b576080610c36826fff2ea16466c96a3843ec78b326b5286161118f565b901c90505b6080821615610c65576080610c60826ffe5dee046a99a2a811c461f1969c305361118f565b901c90505b610100821615610c90576080610c8b826ffcbe86c7900a88aedcffc83b479aa3a461118f565b901c90505b610200821615610cbb576080610cb6826ff987a7253ac413176f2b074cf7815e5461118f565b901c90505b610400821615610ce6576080610ce1826ff3392b0822b70005940c7a398e4b70f361118f565b901c90505b610800821615610d11576080610d0c826fe7159475a2c29b7443b29c7fa6e889d961118f565b901c90505b611000821615610d3c576080610d37826fd097f3bdfd2022b8845ad8f792aa582561118f565b901c90505b612000821615610d67576080610d62826fa9f746462d870fdf8a65dc1f90e061e561118f565b901c90505b614000821615610d92576080610d8d826f70d869a156d2a1b890bb3df62baf32f761118f565b901c90505b618000821615610dbd576080610db8826f31be135f97d08fd981231505542fcfa661118f565b901c90505b62010000821615610de9576080610de4826f09aa508b5b7a84e1c677de54f3e99bc961118f565b901c90505b62020000821615610e14576080610e0f826e5d6af8dedb81196699c329225ee60461118f565b901c90505b62040000821615610e3e576080610e39826d2216e584f5fa1ea926041bedfe9861118f565b901c90505b62080000821615610e66576080610e61826b048a170391f7dc42444e8fa261118f565b901c90505b60008460020b1315610e8157610e7e816000196111bc565b90505b610e90640100000000826111d0565b15610e9c576001610e9f565b60005b610eb09060ff16602083901c6111e4565b949350505050565b6040805160a08101825285546001600160801b0390811682526001870154602083015260028701549282019290925260038601548083166060830152600160801b900490911660808201526000600f85900b8103610f4c5781516001600160801b0316610f4c5760405162461bcd60e51b815260206004820152600260248201526104e560f41b604482015260640161030d565b84600f0b600014610fae57600085600f0b12610f74578151610f6f9086906111f7565b610f89565b610f7d85611217565b8251610f89919061123d565b86546fffffffffffffffffffffffffffffffff19166001600160801b03919091161786555b505050505050565b600060208284031215610fc857600080fd5b5035919050565b6001600160a01b0381168114610fe457600080fd5b50565b8035600281900b81146105f057600080fd5b6000806000806080858703121561100f57600080fd5b843561101a81610fcf565b935061102860208601610fe7565b925061103660408601610fe7565b915060608501356001600160801b038116811461105257600080fd5b939692955090935050565b60006020828403121561106f57600080fd5b813561107a81610fcf565b9392505050565b60006020828403121561109357600080fd5b8151801515811461107a57600080fd5b634e487b7160e01b600052601160045260246000fd5b818103818111156110cc576110cc6110a3565b92915050565b81810360008312801583831316838312821617156110f2576110f26110a3565b5092915050565b80820260008212600160ff1b84141615611115576111156110a3565b81810583148215176110cc576110cc6110a3565b8082018281126000831280158216821582161715611149576111496110a3565b505092915050565b60008160020b627fffff19810361116a5761116a6110a3565b60000392915050565b6000600160ff1b8201611188576111886110a3565b5060000390565b80820281158282048414176110cc576110cc6110a3565b634e487b7160e01b600052601260045260246000fd5b6000826111cb576111cb6111a6565b500490565b6000826111df576111df6111a6565b500690565b808201808211156110cc576110cc6110a3565b6001600160801b038181168382160190808211156110f2576110f26110a3565b600081600f0b6f7fffffffffffffffffffffffffffffff19810361116a5761116a6110a3565b6001600160801b038281168282160390808211156110f2576110f26110a356fea2646970667358221220c210dcdeb4bbaa71446f48788169913437177397a2184a0fefdf44ec0649b32f64736f6c63430008190033","linkReferences":{}},"methodIdentifiers":{"fee()":"ddca3f43","initialize(uint160)":"f637731d","maxLiquidityPerTick()":"70cf754a","mint(address,int24,int24,uint128)":"b8cca34e","positions(bytes32)":"514ea4bf","slot0()":"3850c7bd","tickSpacing()":"d0c93a7c","token0()":"0dfe1681","token1()":"d21220a7"},"id":0}